{
  "contractName": "Agent",
  "abi": [
    {
      "constant": true,
      "inputs": [
        {
          "internalType": "uint256",
          "name": "",
          "type": "uint256"
        }
      ],
      "name": "doctorList",
      "outputs": [
        {
          "internalType": "address",
          "name": "",
          "type": "address"
        }
      ],
      "payable": false,
      "stateMutability": "view",
      "type": "function"
    },
    {
      "constant": true,
      "inputs": [
        {
          "internalType": "uint256",
          "name": "",
          "type": "uint256"
        }
      ],
      "name": "insurerList",
      "outputs": [
        {
          "internalType": "address",
          "name": "",
          "type": "address"
        }
      ],
      "payable": false,
      "stateMutability": "view",
      "type": "function"
    },
    {
      "constant": true,
      "inputs": [
        {
          "internalType": "uint256",
          "name": "",
          "type": "uint256"
        }
      ],
      "name": "patientList",
      "outputs": [
        {
          "internalType": "address",
          "name": "",
          "type": "address"
        }
      ],
      "payable": false,
      "stateMutability": "view",
      "type": "function"
    },
    {
      "constant": false,
      "inputs": [
        {
          "internalType": "string",
          "name": "_name",
          "type": "string"
        },
        {
          "internalType": "uint256",
          "name": "_age",
          "type": "uint256"
        },
        {
          "internalType": "uint256",
          "name": "_designation",
          "type": "uint256"
        },
        {
          "internalType": "string",
          "name": "_hash",
          "type": "string"
        }
      ],
      "name": "add_agent",
      "outputs": [],
      "payable": false,
      "stateMutability": "nonpayable",
      "type": "function"
    },
    {
      "constant": true,
      "inputs": [
        {
          "internalType": "address",
          "name": "addr",
          "type": "address"
        }
      ],
      "name": "get_patient",
      "outputs": [
        {
          "internalType": "string",
          "name": "",
          "type": "string"
        },
        {
          "internalType": "uint256",
          "name": "",
          "type": "uint256"
        },
        {
          "internalType": "uint256[]",
          "name": "",
          "type": "uint256[]"
        },
        {
          "internalType": "address",
          "name": "",
          "type": "address"
        },
        {
          "internalType": "string",
          "name": "",
          "type": "string"
        }
      ],
      "payable": false,
      "stateMutability": "view",
      "type": "function"
    },
    {
      "constant": true,
      "inputs": [
        {
          "internalType": "address",
          "name": "addr",
          "type": "address"
        }
      ],
      "name": "get_doctor",
      "outputs": [
        {
          "internalType": "string",
          "name": "",
          "type": "string"
        },
        {
          "internalType": "uint256",
          "name": "",
          "type": "uint256"
        }
      ],
      "payable": false,
      "stateMutability": "view",
      "type": "function"
    },
    {
      "constant": true,
      "inputs": [
        {
          "internalType": "address",
          "name": "paddr",
          "type": "address"
        },
        {
          "internalType": "address",
          "name": "daddr",
          "type": "address"
        }
      ],
      "name": "get_patient_doctor_name",
      "outputs": [
        {
          "internalType": "string",
          "name": "",
          "type": "string"
        },
        {
          "internalType": "string",
          "name": "",
          "type": "string"
        }
      ],
      "payable": false,
      "stateMutability": "view",
      "type": "function"
    },
    {
      "constant": true,
      "inputs": [
        {
          "internalType": "address",
          "name": "addr",
          "type": "address"
        }
      ],
      "name": "get_insurer",
      "outputs": [
        {
          "internalType": "string",
          "name": "",
          "type": "string"
        },
        {
          "internalType": "uint256",
          "name": "",
          "type": "uint256"
        },
        {
          "internalType": "address[]",
          "name": "",
          "type": "address[]"
        },
        {
          "internalType": "address[]",
          "name": "",
          "type": "address[]"
        },
        {
          "internalType": "uint256[]",
          "name": "",
          "type": "uint256[]"
        }
      ],
      "payable": false,
      "stateMutability": "view",
      "type": "function"
    },
    {
      "constant": false,
      "inputs": [
        {
          "internalType": "address",
          "name": "addr",
          "type": "address"
        }
      ],
      "name": "permit_access",
      "outputs": [],
      "payable": true,
      "stateMutability": "payable",
      "type": "function"
    },
    {
      "constant": false,
      "inputs": [
        {
          "internalType": "address payable",
          "name": "iaddr",
          "type": "address"
        },
        {
          "internalType": "uint256[]",
          "name": "_diagnosis",
          "type": "uint256[]"
        }
      ],
      "name": "select_insurer",
      "outputs": [],
      "payable": true,
      "stateMutability": "payable",
      "type": "function"
    },
    {
      "constant": false,
      "inputs": [
        {
          "internalType": "address",
          "name": "paddr",
          "type": "address"
        },
        {
          "internalType": "uint256",
          "name": "_diagnosis",
          "type": "uint256"
        },
        {
          "internalType": "string",
          "name": "_hash",
          "type": "string"
        }
      ],
      "name": "insurance_claim",
      "outputs": [],
      "payable": false,
      "stateMutability": "nonpayable",
      "type": "function"
    },
    {
      "constant": false,
      "inputs": [
        {
          "internalType": "address payable",
          "name": "paddr",
          "type": "address"
        }
      ],
      "name": "accept_claim",
      "outputs": [],
      "payable": true,
      "stateMutability": "payable",
      "type": "function"
    },
    {
      "constant": false,
      "inputs": [
        {
          "internalType": "address",
          "name": "paddr",
          "type": "address"
        },
        {
          "internalType": "address",
          "name": "daddr",
          "type": "address"
        }
      ],
      "name": "remove_patient",
      "outputs": [],
      "payable": false,
      "stateMutability": "nonpayable",
      "type": "function"
    },
    {
      "constant": true,
      "inputs": [
        {
          "internalType": "address",
          "name": "addr",
          "type": "address"
        }
      ],
      "name": "get_accessed_doctorlist_for_patient",
      "outputs": [
        {
          "internalType": "address[]",
          "name": "",
          "type": "address[]"
        }
      ],
      "payable": false,
      "stateMutability": "view",
      "type": "function"
    },
    {
      "constant": true,
      "inputs": [
        {
          "internalType": "address",
          "name": "addr",
          "type": "address"
        }
      ],
      "name": "get_accessed_patientlist_for_doctor",
      "outputs": [
        {
          "internalType": "address[]",
          "name": "",
          "type": "address[]"
        }
      ],
      "payable": false,
      "stateMutability": "view",
      "type": "function"
    },
    {
      "constant": false,
      "inputs": [
        {
          "internalType": "address",
          "name": "daddr",
          "type": "address"
        }
      ],
      "name": "revoke_access",
      "outputs": [],
      "payable": true,
      "stateMutability": "payable",
      "type": "function"
    },
    {
      "constant": true,
      "inputs": [],
      "name": "get_patient_list",
      "outputs": [
        {
          "internalType": "address[]",
          "name": "",
          "type": "address[]"
        }
      ],
      "payable": false,
      "stateMutability": "view",
      "type": "function"
    },
    {
      "constant": true,
      "inputs": [],
      "name": "get_doctor_list",
      "outputs": [
        {
          "internalType": "address[]",
          "name": "",
          "type": "address[]"
        }
      ],
      "payable": false,
      "stateMutability": "view",
      "type": "function"
    },
    {
      "constant": true,
      "inputs": [],
      "name": "get_insurer_list",
      "outputs": [
        {
          "internalType": "address[]",
          "name": "",
          "type": "address[]"
        }
      ],
      "payable": false,
      "stateMutability": "view",
      "type": "function"
    },
    {
      "constant": true,
      "inputs": [
        {
          "internalType": "address",
          "name": "paddr",
          "type": "address"
        }
      ],
      "name": "get_hash",
      "outputs": [
        {
          "internalType": "string",
          "name": "",
          "type": "string"
        }
      ],
      "payable": false,
      "stateMutability": "view",
      "type": "function"
    }
  ],
  "bytecode": "0x608060405234801561001057600080fd5b50613580806100206000396000f3fe60806040526004361061011e5760003560e01c8063b703ea4f116100a0578063dd44176b11610064578063dd44176b14610c0d578063e81ac05414610cb3578063ee59d4cd14610d1f578063f02d90a414610d8b578063f24be9e714610efe5761011e565b8063b703ea4f146109c6578063babb1d4114610a0a578063bcffb7ca14610a85578063c39e963514610ac9578063da9bdff514610b355761011e565b80634042d2d4116100e75780634042d2d41461044f57806356c98c481461060757806378ffb292146106d85780637e1519ce14610753578063a44672cf1461081d5761011e565b80627ee3ce146101235780630362fe9b146101c9578063127ca4b41461023a5780631e3fc3b8146102b557806327b1dcee1461040b575b600080fd5b34801561012f57600080fd5b506101726004803603602081101561014657600080fd5b81019080803573ffffffffffffffffffffffffffffffffffffffff169060200190929190505050610ff0565b6040518080602001828103825283818151815260200191508051906020019060200280838360005b838110156101b557808201518184015260208101905061019a565b505050509050019250505060405180910390f35b3480156101d557600080fd5b50610238600480360360408110156101ec57600080fd5b81019080803573ffffffffffffffffffffffffffffffffffffffff169060200190929190803573ffffffffffffffffffffffffffffffffffffffff1690602001909291905050506110c6565b005b34801561024657600080fd5b506102736004803603602081101561025d57600080fd5b8101908080359060200190929190505050611162565b604051808273ffffffffffffffffffffffffffffffffffffffff1673ffffffffffffffffffffffffffffffffffffffff16815260200191505060405180910390f35b3480156102c157600080fd5b50610324600480360360408110156102d857600080fd5b81019080803573ffffffffffffffffffffffffffffffffffffffff169060200190929190803573ffffffffffffffffffffffffffffffffffffffff16906020019092919050505061119e565b604051808060200180602001838103835285818151815260200191508051906020019080838360005b8381101561036857808201518184015260208101905061034d565b50505050905090810190601f1680156103955780820380516001836020036101000a031916815260200191505b50838103825284818151815260200191508051906020019080838360005b838110156103ce5780820151818401526020810190506103b3565b50505050905090810190601f1680156103fb5780820380516001836020036101000a031916815260200191505b5094505050505060405180910390f35b61044d6004803603602081101561042157600080fd5b81019080803573ffffffffffffffffffffffffffffffffffffffff169060200190929190505050611368565b005b34801561045b57600080fd5b5061049e6004803603602081101561047257600080fd5b81019080803573ffffffffffffffffffffffffffffffffffffffff1690602001909291905050506113d4565b6040518080602001868152602001806020018573ffffffffffffffffffffffffffffffffffffffff1673ffffffffffffffffffffffffffffffffffffffff16815260200180602001848103845289818151815260200191508051906020019080838360005b8381101561051e578082015181840152602081019050610503565b50505050905090810190601f16801561054b5780820380516001836020036101000a031916815260200191505b50848103835287818151815260200191508051906020019060200280838360005b8381101561058757808201518184015260208101905061056c565b50505050905001848103825285818151815260200191508051906020019080838360005b838110156105c65780820151818401526020810190506105ab565b50505050905090810190601f1680156105f35780820380516001836020036101000a031916815260200191505b509850505050505050505060405180910390f35b34801561061357600080fd5b506106566004803603602081101561062a57600080fd5b81019080803573ffffffffffffffffffffffffffffffffffffffff1690602001909291905050506116e4565b6040518080602001838152602001828103825284818151815260200191508051906020019080838360005b8381101561069c578082015181840152602081019050610681565b50505050905090810190601f1680156106c95780820380516001836020036101000a031916815260200191505b50935050505060405180910390f35b3480156106e457600080fd5b50610711600480360360208110156106fb57600080fd5b8101908080359060200190929190505050611812565b604051808273ffffffffffffffffffffffffffffffffffffffff1673ffffffffffffffffffffffffffffffffffffffff16815260200191505060405180910390f35b34801561075f57600080fd5b506107a26004803603602081101561077657600080fd5b81019080803573ffffffffffffffffffffffffffffffffffffffff16906020019092919050505061184e565b6040518080602001828103825283818151815260200191508051906020019080838360005b838110156107e25780820151818401526020810190506107c7565b50505050905090810190601f16801561080f5780820380516001836020036101000a031916815260200191505b509250505060405180910390f35b34801561082957600080fd5b5061086c6004803603602081101561084057600080fd5b81019080803573ffffffffffffffffffffffffffffffffffffffff169060200190929190505050611932565b604051808060200186815260200180602001806020018060200185810385528a818151815260200191508051906020019080838360005b838110156108be5780820151818401526020810190506108a3565b50505050905090810190601f1680156108eb5780820380516001836020036101000a031916815260200191505b50858103845288818151815260200191508051906020019060200280838360005b8381101561092757808201518184015260208101905061090c565b50505050905001858103835287818151815260200191508051906020019060200280838360005b8381101561096957808201518184015260208101905061094e565b50505050905001858103825286818151815260200191508051906020019060200280838360005b838110156109ab578082015181840152602081019050610990565b50505050905001995050505050505050505060405180910390f35b610a08600480360360208110156109dc57600080fd5b81019080803573ffffffffffffffffffffffffffffffffffffffff169060200190929190505050611c97565b005b348015610a1657600080fd5b50610a4360048036036020811015610a2d57600080fd5b8101908080359060200190929190505050612322565b604051808273ffffffffffffffffffffffffffffffffffffffff1673ffffffffffffffffffffffffffffffffffffffff16815260200191505060405180910390f35b610ac760048036036020811015610a9b57600080fd5b81019080803573ffffffffffffffffffffffffffffffffffffffff16906020019092919050505061235e565b005b348015610ad557600080fd5b50610ade6124d7565b6040518080602001828103825283818151815260200191508051906020019060200280838360005b83811015610b21578082015181840152602081019050610b06565b505050509050019250505060405180910390f35b610c0b60048036036040811015610b4b57600080fd5b81019080803573ffffffffffffffffffffffffffffffffffffffff16906020019092919080359060200190640100000000811115610b8857600080fd5b820183602082011115610b9a57600080fd5b80359060200191846020830284011164010000000083111715610bbc57600080fd5b919080806020026020016040519081016040528093929190818152602001838360200280828437600081840152601f19601f820116905080830192505050505050509192919290505050612565565b005b348015610c1957600080fd5b50610c5c60048036036020811015610c3057600080fd5b81019080803573ffffffffffffffffffffffffffffffffffffffff1690602001909291905050506126f4565b6040518080602001828103825283818151815260200191508051906020019060200280838360005b83811015610c9f578082015181840152602081019050610c84565b505050509050019250505060405180910390f35b348015610cbf57600080fd5b50610cc86127c4565b6040518080602001828103825283818151815260200191508051906020019060200280838360005b83811015610d0b578082015181840152602081019050610cf0565b505050509050019250505060405180910390f35b348015610d2b57600080fd5b50610d34612852565b6040518080602001828103825283818151815260200191508051906020019060200280838360005b83811015610d77578082015181840152602081019050610d5c565b505050509050019250505060405180910390f35b348015610d9757600080fd5b50610efc60048036036080811015610dae57600080fd5b8101908080359060200190640100000000811115610dcb57600080fd5b820183602082011115610ddd57600080fd5b80359060200191846001830284011164010000000083111715610dff57600080fd5b91908080601f016020809104026020016040519081016040528093929190818152602001838380828437600081840152601f19601f820116905080830192505050505050509192919290803590602001909291908035906020019092919080359060200190640100000000811115610e7657600080fd5b820183602082011115610e8857600080fd5b80359060200191846001830284011164010000000083111715610eaa57600080fd5b91908080601f016020809104026020016040519081016040528093929190818152602001838380828437600081840152601f19601f8201169050808301925050505050505091929192905050506128e0565b005b348015610f0a57600080fd5b50610fee60048036036060811015610f2157600080fd5b81019080803573ffffffffffffffffffffffffffffffffffffffff1690602001909291908035906020019092919080359060200190640100000000811115610f6857600080fd5b820183602082011115610f7a57600080fd5b80359060200191846001830284011164010000000083111715610f9c57600080fd5b91908080601f016020809104026020016040519081016040528093929190818152602001838380828437600081840152601f19601f820116905080830192505050505050509192919290505050612c41565b005b60606000600460008473ffffffffffffffffffffffffffffffffffffffff1673ffffffffffffffffffffffffffffffffffffffff1681526020019081526020016000206002019050808054806020026020016040519081016040528092919081815260200182805480156110b957602002820191906000526020600020905b8160009054906101000a900473ffffffffffffffffffffffffffffffffffffffff1673ffffffffffffffffffffffffffffffffffffffff168152602001906001019080831161106f575b5050505050915050919050565b611111600560008373ffffffffffffffffffffffffffffffffffffffff1673ffffffffffffffffffffffffffffffffffffffff16815260200190815260200160002060020183613197565b5061115d600460008473ffffffffffffffffffffffffffffffffffffffff1673ffffffffffffffffffffffffffffffffffffffff16815260200190815260200160002060020182613197565b505050565b6002818154811061116f57fe5b906000526020600020016000915054906101000a900473ffffffffffffffffffffffffffffffffffffffff1681565b606080600460008573ffffffffffffffffffffffffffffffffffffffff1673ffffffffffffffffffffffffffffffffffffffff168152602001908152602001600020600001600560008573ffffffffffffffffffffffffffffffffffffffff1673ffffffffffffffffffffffffffffffffffffffff168152602001908152602001600020600001818054600181600116156101000203166002900480601f0160208091040260200160405190810160405280929190818152602001828054600181600116156101000203166002900480156112ba5780601f1061128f576101008083540402835291602001916112ba565b820191906000526020600020905b81548152906001019060200180831161129d57829003601f168201915b50505050509150808054600181600116156101000203166002900480601f0160208091040260200160405190810160405280929190818152602001828054600181600116156101000203166002900480156113565780601f1061132b57610100808354040283529160200191611356565b820191906000526020600020905b81548152906001019060200180831161133957829003601f168201915b50505050509050915091509250929050565b61137233826110c6565b3373ffffffffffffffffffffffffffffffffffffffff166108fc671bc16d674ec800009081150290604051600060405180830381858888f193505050501580156113c0573d6000803e3d6000fd5b506002600080828254039250508190555050565b60606000606060006060600460008773ffffffffffffffffffffffffffffffffffffffff1673ffffffffffffffffffffffffffffffffffffffff168152602001908152602001600020600001600460008873ffffffffffffffffffffffffffffffffffffffff1673ffffffffffffffffffffffffffffffffffffffff16815260200190815260200160002060010154600460008973ffffffffffffffffffffffffffffffffffffffff1673ffffffffffffffffffffffffffffffffffffffff168152602001908152602001600020600301600760008a73ffffffffffffffffffffffffffffffffffffffff1673ffffffffffffffffffffffffffffffffffffffff16815260200190815260200160002060009054906101000a900473ffffffffffffffffffffffffffffffffffffffff16600460008b73ffffffffffffffffffffffffffffffffffffffff1673ffffffffffffffffffffffffffffffffffffffff168152602001908152602001600020600401848054600181600116156101000203166002900480601f0160208091040260200160405190810160405280929190818152602001828054600181600116156101000203166002900480156115dc5780601f106115b1576101008083540402835291602001916115dc565b820191906000526020600020905b8154815290600101906020018083116115bf57829003601f168201915b505050505094508280548060200260200160405190810160405280929190818152602001828054801561162e57602002820191906000526020600020905b81548152602001906001019080831161161a575b50505050509250808054600181600116156101000203166002900480601f0160208091040260200160405190810160405280929190818152602001828054600181600116156101000203166002900480156116ca5780601f1061169f576101008083540402835291602001916116ca565b820191906000526020600020905b8154815290600101906020018083116116ad57829003601f168201915b505050505090509450945094509450945091939590929450565b60606000600560008473ffffffffffffffffffffffffffffffffffffffff1673ffffffffffffffffffffffffffffffffffffffff168152602001908152602001600020600001600560008573ffffffffffffffffffffffffffffffffffffffff1673ffffffffffffffffffffffffffffffffffffffff16815260200190815260200160002060010154818054600181600116156101000203166002900480601f0160208091040260200160405190810160405280929190818152602001828054600181600116156101000203166002900480156118025780601f106117d757610100808354040283529160200191611802565b820191906000526020600020905b8154815290600101906020018083116117e557829003601f168201915b5050505050915091509150915091565b6003818154811061181f57fe5b906000526020600020016000915054906101000a900473ffffffffffffffffffffffffffffffffffffffff1681565b6060600460008373ffffffffffffffffffffffffffffffffffffffff1673ffffffffffffffffffffffffffffffffffffffff1681526020019081526020016000206004018054600181600116156101000203166002900480601f0160208091040260200160405190810160405280929190818152602001828054600181600116156101000203166002900480156119265780601f106118fb57610100808354040283529160200191611926565b820191906000526020600020905b81548152906001019060200180831161190957829003601f168201915b50505050509050919050565b606060006060806060600660008773ffffffffffffffffffffffffffffffffffffffff1673ffffffffffffffffffffffffffffffffffffffff168152602001908152602001600020600001600660008873ffffffffffffffffffffffffffffffffffffffff1673ffffffffffffffffffffffffffffffffffffffff16815260200190815260200160002060010154600660008973ffffffffffffffffffffffffffffffffffffffff1673ffffffffffffffffffffffffffffffffffffffff168152602001908152602001600020600201600660008a73ffffffffffffffffffffffffffffffffffffffff1673ffffffffffffffffffffffffffffffffffffffff168152602001908152602001600020600301600660008b73ffffffffffffffffffffffffffffffffffffffff1673ffffffffffffffffffffffffffffffffffffffff168152602001908152602001600020600401848054600181600116156101000203166002900480601f016020809104026020016040519081016040528092919081815260200182805460018160011615610100020316600290048015611b1b5780601f10611af057610100808354040283529160200191611b1b565b820191906000526020600020905b815481529060010190602001808311611afe57829003601f168201915b5050505050945082805480602002602001604051908101604052809291908181526020018280548015611ba357602002820191906000526020600020905b8160009054906101000a900473ffffffffffffffffffffffffffffffffffffffff1673ffffffffffffffffffffffffffffffffffffffff1681526020019060010190808311611b59575b5050505050925081805480602002602001604051908101604052809291908181526020018280548015611c2b57602002820191906000526020600020905b8160009054906101000a900473ffffffffffffffffffffffffffffffffffffffff1673ffffffffffffffffffffffffffffffffffffffff1681526020019060010190808311611be1575b5050505050915080805480602002602001604051908101604052809291908181526020018280548015611c7d57602002820191906000526020600020905b815481526020019060010190808311611c69575b505050505090509450945094509450945091939590929450565b673782dace9d9000003414611cab57600080fd5b8073ffffffffffffffffffffffffffffffffffffffff166108fc349081150290604051600060405180830381858888f19350505050158015611cf1573d6000803e3d6000fd5b506000611d3f600660003373ffffffffffffffffffffffffffffffffffffffff1673ffffffffffffffffffffffffffffffffffffffff16815260200190815260200160002060020183613197565b506001600660003373ffffffffffffffffffffffffffffffffffffffff1673ffffffffffffffffffffffffffffffffffffffff168152602001908152602001600020600401805490501415611e0d57600660003373ffffffffffffffffffffffffffffffffffffffff1673ffffffffffffffffffffffffffffffffffffffff1681526020019081526020016000206003018181548110611ddb57fe5b9060005260206000200160006101000a81549073ffffffffffffffffffffffffffffffffffffffff0219169055612025565b600660003373ffffffffffffffffffffffffffffffffffffffff1673ffffffffffffffffffffffffffffffffffffffff1681526020019081526020016000206003016001600660003373ffffffffffffffffffffffffffffffffffffffff1673ffffffffffffffffffffffffffffffffffffffff168152602001908152602001600020600301805490500381548110611ea257fe5b9060005260206000200160009054906101000a900473ffffffffffffffffffffffffffffffffffffffff16600660003373ffffffffffffffffffffffffffffffffffffffff1673ffffffffffffffffffffffffffffffffffffffff1681526020019081526020016000206003018281548110611f1a57fe5b9060005260206000200160006101000a81548173ffffffffffffffffffffffffffffffffffffffff021916908373ffffffffffffffffffffffffffffffffffffffff160217905550600660003373ffffffffffffffffffffffffffffffffffffffff1673ffffffffffffffffffffffffffffffffffffffff1681526020019081526020016000206003016001600660003373ffffffffffffffffffffffffffffffffffffffff1673ffffffffffffffffffffffffffffffffffffffff168152602001908152602001600020600301805490500381548110611ff757fe5b9060005260206000200160006101000a81549073ffffffffffffffffffffffffffffffffffffffff02191690555b600660003373ffffffffffffffffffffffffffffffffffffffff1673ffffffffffffffffffffffffffffffffffffffff16815260200190815260200160002060030180548091906001900361207a91906133d5565b506001600660003373ffffffffffffffffffffffffffffffffffffffff1673ffffffffffffffffffffffffffffffffffffffff16815260200190815260200160002060040180549050141561212957600660003373ffffffffffffffffffffffffffffffffffffffff1673ffffffffffffffffffffffffffffffffffffffff168152602001908152602001600020600401818154811061211657fe5b90600052602060002001600090556122c8565b600660003373ffffffffffffffffffffffffffffffffffffffff1673ffffffffffffffffffffffffffffffffffffffff1681526020019081526020016000206004016001600660003373ffffffffffffffffffffffffffffffffffffffff1673ffffffffffffffffffffffffffffffffffffffff1681526020019081526020016000206004018054905003815481106121be57fe5b9060005260206000200154600660003373ffffffffffffffffffffffffffffffffffffffff1673ffffffffffffffffffffffffffffffffffffffff168152602001908152602001600020600401828154811061221657fe5b9060005260206000200181905550600660003373ffffffffffffffffffffffffffffffffffffffff1673ffffffffffffffffffffffffffffffffffffffff1681526020019081526020016000206004016001600660003373ffffffffffffffffffffffffffffffffffffffff1673ffffffffffffffffffffffffffffffffffffffff1681526020019081526020016000206004018054905003815481106122b957fe5b90600052602060002001600090555b600660003373ffffffffffffffffffffffffffffffffffffffff1673ffffffffffffffffffffffffffffffffffffffff16815260200190815260200160002060040180548091906001900361231d9190613401565b505050565b6001818154811061232f57fe5b906000526020600020016000915054906101000a900473ffffffffffffffffffffffffffffffffffffffff1681565b671bc16d674ec80000341461237257600080fd5b600260008082825401925050819055506001600560008373ffffffffffffffffffffffffffffffffffffffff1673ffffffffffffffffffffffffffffffffffffffff1681526020019081526020016000206002013390806001815401808255809150509060018203906000526020600020016000909192909190916101000a81548173ffffffffffffffffffffffffffffffffffffffff021916908373ffffffffffffffffffffffffffffffffffffffff16021790555050506001600460003373ffffffffffffffffffffffffffffffffffffffff1673ffffffffffffffffffffffffffffffffffffffff1681526020019081526020016000206002018290806001815401808255809150509060018203906000526020600020016000909192909190916101000a81548173ffffffffffffffffffffffffffffffffffffffff021916908373ffffffffffffffffffffffffffffffffffffffff160217905550505050565b6060600280548060200260200160405190810160405280929190818152602001828054801561255b57602002820191906000526020600020905b8160009054906101000a900473ffffffffffffffffffffffffffffffffffffffff1673ffffffffffffffffffffffffffffffffffffffff1681526020019060010190808311612511575b5050505050905090565b600081519050670de0b6b3a76400008102341461258157600080fd5b8273ffffffffffffffffffffffffffffffffffffffff166108fc349081150290604051600060405180830381858888f193505050501580156125c7573d6000803e3d6000fd5b5082600760003373ffffffffffffffffffffffffffffffffffffffff1673ffffffffffffffffffffffffffffffffffffffff16815260200190815260200160002060006101000a81548173ffffffffffffffffffffffffffffffffffffffff021916908373ffffffffffffffffffffffffffffffffffffffff16021790555081600460003373ffffffffffffffffffffffffffffffffffffffff1673ffffffffffffffffffffffffffffffffffffffff168152602001908152602001600020600301908051906020019061269c92919061342d565b50600660008473ffffffffffffffffffffffffffffffffffffffff1673ffffffffffffffffffffffffffffffffffffffff16815260200190815260200160002060010160008154809291906001019190505550505050565b6060600560008373ffffffffffffffffffffffffffffffffffffffff1673ffffffffffffffffffffffffffffffffffffffff1681526020019081526020016000206002018054806020026020016040519081016040528092919081815260200182805480156127b857602002820191906000526020600020905b8160009054906101000a900473ffffffffffffffffffffffffffffffffffffffff1673ffffffffffffffffffffffffffffffffffffffff168152602001906001019080831161276e575b50505050509050919050565b6060600180548060200260200160405190810160405280929190818152602001828054801561284857602002820191906000526020600020905b8160009054906101000a900473ffffffffffffffffffffffffffffffffffffffff1673ffffffffffffffffffffffffffffffffffffffff16815260200190600101908083116127fe575b5050505050905090565b606060038054806020026020016040519081016040528092919081815260200182805480156128d657602002820191906000526020600020905b8160009054906101000a900473ffffffffffffffffffffffffffffffffffffffff1673ffffffffffffffffffffffffffffffffffffffff168152602001906001019080831161288c575b5050505050905090565b60003390506000831415612a505784600460008373ffffffffffffffffffffffffffffffffffffffff1673ffffffffffffffffffffffffffffffffffffffff168152602001908152602001600020600001908051906020019061294492919061347a565b5083600460008373ffffffffffffffffffffffffffffffffffffffff1673ffffffffffffffffffffffffffffffffffffffff1681526020019081526020016000206001018190555081600460008373ffffffffffffffffffffffffffffffffffffffff1673ffffffffffffffffffffffffffffffffffffffff16815260200190815260200160002060040190805190602001906129e292919061347a565b506001808290806001815401808255809150509060018203906000526020600020016000909192909190916101000a81548173ffffffffffffffffffffffffffffffffffffffff021916908373ffffffffffffffffffffffffffffffffffffffff1602179055505050612c3a565b6001831415612b655784600560008373ffffffffffffffffffffffffffffffffffffffff1673ffffffffffffffffffffffffffffffffffffffff1681526020019081526020016000206000019080519060200190612aaf92919061347a565b5083600560008373ffffffffffffffffffffffffffffffffffffffff1673ffffffffffffffffffffffffffffffffffffffff16815260200190815260200160002060010181905550600160028290806001815401808255809150509060018203906000526020600020016000909192909190916101000a81548173ffffffffffffffffffffffffffffffffffffffff021916908373ffffffffffffffffffffffffffffffffffffffff1602179055505050612c39565b6002831415612c335784600660008373ffffffffffffffffffffffffffffffffffffffff1673ffffffffffffffffffffffffffffffffffffffff1681526020019081526020016000206000019080519060200190612bc492919061347a565b50600160038290806001815401808255809150509060018203906000526020600020016000909192909190916101000a81548173ffffffffffffffffffffffffffffffffffffffff021916908373ffffffffffffffffffffffffffffffffffffffff1602179055505050612c38565b600080fd5b5b5b5050505050565b600080905060008090505b600560003373ffffffffffffffffffffffffffffffffffffffff1673ffffffffffffffffffffffffffffffffffffffff16815260200190815260200160002060020180549050811015612db5578473ffffffffffffffffffffffffffffffffffffffff16600560003373ffffffffffffffffffffffffffffffffffffffff1673ffffffffffffffffffffffffffffffffffffffff1681526020019081526020016000206002018281548110612cfd57fe5b9060005260206000200160009054906101000a900473ffffffffffffffffffffffffffffffffffffffff1673ffffffffffffffffffffffffffffffffffffffff161415612da8573373ffffffffffffffffffffffffffffffffffffffff166108fc671bc16d674ec800009081150290604051600060405180830381858888f19350505050158015612d92573d6000803e3d6000fd5b5060026000808282540392505081905550600191505b8080600101915050612c4c565b50600115158115151415612ddc57612dcd848361337a565b612dd784336110c6565b612de1565b600080fd5b600080905060008090505b600460008773ffffffffffffffffffffffffffffffffffffffff1673ffffffffffffffffffffffffffffffffffffffff16815260200190815260200160002060030180549050811015612eaa5784600460008873ffffffffffffffffffffffffffffffffffffffff1673ffffffffffffffffffffffffffffffffffffffff1681526020019081526020016000206003018281548110612e8757fe5b90600052602060002001541415612e9d57600191505b8080600101915050612dec565b50801561319057600160066000600760008973ffffffffffffffffffffffffffffffffffffffff1673ffffffffffffffffffffffffffffffffffffffff16815260200190815260200160002060009054906101000a900473ffffffffffffffffffffffffffffffffffffffff1673ffffffffffffffffffffffffffffffffffffffff1673ffffffffffffffffffffffffffffffffffffffff1681526020019081526020016000206002018690806001815401808255809150509060018203906000526020600020016000909192909190916101000a81548173ffffffffffffffffffffffffffffffffffffffff021916908373ffffffffffffffffffffffffffffffffffffffff1602179055505050600160066000600760008973ffffffffffffffffffffffffffffffffffffffff1673ffffffffffffffffffffffffffffffffffffffff16815260200190815260200160002060009054906101000a900473ffffffffffffffffffffffffffffffffffffffff1673ffffffffffffffffffffffffffffffffffffffff1673ffffffffffffffffffffffffffffffffffffffff1681526020019081526020016000206003013390806001815401808255809150509060018203906000526020600020016000909192909190916101000a81548173ffffffffffffffffffffffffffffffffffffffff021916908373ffffffffffffffffffffffffffffffffffffffff1602179055505050600160066000600760008973ffffffffffffffffffffffffffffffffffffffff1673ffffffffffffffffffffffffffffffffffffffff16815260200190815260200160002060009054906101000a900473ffffffffffffffffffffffffffffffffffffffff1673ffffffffffffffffffffffffffffffffffffffff1673ffffffffffffffffffffffffffffffffffffffff168152602001908152602001600020600401859080600181540180825580915050906001820390600052602060002001600090919290919091505550505b5050505050565b60008060009050600080905060008090505b8580549050811015613234578473ffffffffffffffffffffffffffffffffffffffff168682815481106131d857fe5b9060005260206000200160009054906101000a900473ffffffffffffffffffffffffffffffffffffffff1673ffffffffffffffffffffffffffffffffffffffff16141561322757600192508091505b80806001019150506131a9565b508161323f57600080fd5b60018580549050141561328a5784818154811061325857fe5b9060005260206000200160006101000a81549073ffffffffffffffffffffffffffffffffffffffff021916905561335d565b8460018680549050038154811061329d57fe5b9060005260206000200160009054906101000a900473ffffffffffffffffffffffffffffffffffffffff168582815481106132d457fe5b9060005260206000200160006101000a81548173ffffffffffffffffffffffffffffffffffffffff021916908373ffffffffffffffffffffffffffffffffffffffff1602179055508460018680549050038154811061332f57fe5b9060005260206000200160006101000a81549073ffffffffffffffffffffffffffffffffffffffff02191690555b8480548091906001900361337191906134fa565b50505092915050565b80600460008473ffffffffffffffffffffffffffffffffffffffff1673ffffffffffffffffffffffffffffffffffffffff16815260200190815260200160002060040190805190602001906133d092919061347a565b505050565b8154818355818111156133fc578183600052602060002091820191016133fb9190613526565b5b505050565b815481835581811115613428578183600052602060002091820191016134279190613526565b5b505050565b828054828255906000526020600020908101928215613469579160200282015b8281111561346857825182559160200191906001019061344d565b5b5090506134769190613526565b5090565b828054600181600116156101000203166002900490600052602060002090601f016020900481019282601f106134bb57805160ff19168380011785556134e9565b828001600101855582156134e9579182015b828111156134e85782518255916020019190600101906134cd565b5b5090506134f69190613526565b5090565b815481835581811115613521578183600052602060002091820191016135209190613526565b5b505050565b61354891905b8082111561354457600081600090555060010161352c565b5090565b9056fea265627a7a72315820add5de02f35eb7d2a2d5e4c6e991d92faf1afce9947d90b9ef4ac793478f1c0064736f6c63430005100032",
  "source": "pragma solidity 0.5.16;\r\n\r\ncontract Agent {\r\n    \r\n    struct patient {\r\n        string name;\r\n        uint age;\r\n        address[] doctorAccessList;\r\n        uint[] diagnosis;\r\n        string record;\r\n    }\r\n    \r\n    struct doctor {\r\n        string name;\r\n        uint age;\r\n        address[] patientAccessList;\r\n    }\r\n\r\n    struct insurer {\r\n        string name;\r\n        uint count_of_patient;\r\n        address[] PatientWhoClaimed;\r\n        address[] DocName;\r\n        uint[] diagnosis; \r\n    }\r\n\r\n\r\n    uint creditPool;\r\n\r\n    address[] public patientList;\r\n    address[] public doctorList;\r\n    address[] public insurerList;\r\n\r\n    mapping (address => patient) patientInfo;\r\n    mapping (address => doctor) doctorInfo;\r\n    mapping (address => insurer) insurerInfo;\r\n    mapping (address => address) Patient_Insurer;\r\n    // might not be necessary\r\n    mapping (address => string) patientRecords;\r\n\r\n\r\n    function add_agent(string memory _name, uint _age, uint _designation, string memory _hash) public {\r\n        address addr = msg.sender;\r\n        \r\n        if(_designation == 0){\r\n            patientInfo[addr].name = _name;\r\n            patientInfo[addr].age = _age;\r\n            patientInfo[addr].record = _hash;\r\n            patientList.push(addr)-1;\r\n        }\r\n       else if (_designation == 1){\r\n            doctorInfo[addr].name = _name;\r\n            doctorInfo[addr].age = _age;\r\n            doctorList.push(addr)-1;\r\n\r\n       }\r\n       else if(_designation == 2){\r\n           insurerInfo[addr].name = _name;\r\n           insurerList.push(addr)-1;\r\n       }\r\n       else{\r\n           revert();\r\n       }\r\n    }\r\n\r\n    function get_patient(address addr) view public returns (string memory, uint, uint[] memory, address, string memory){\r\n        // if(keccak256(patientInfo[addr].name) == keccak256(\"\"))revert();\r\n        return (patientInfo[addr].name, patientInfo[addr].age, patientInfo[addr].diagnosis, Patient_Insurer[addr], patientInfo[addr].record);\r\n    }\r\n\r\n    function get_doctor(address addr) view public returns (string memory, uint){\r\n        // if(keccak256(doctorInfo[addr].name)==keccak256(\"\"))revert();\r\n        return (doctorInfo[addr].name, doctorInfo[addr].age);\r\n    }\r\n    function get_patient_doctor_name(address paddr, address daddr) view public returns (string memory, string memory){\r\n        return (patientInfo[paddr].name,doctorInfo[daddr].name);\r\n    }\r\n    function get_insurer(address addr) view public returns (string memory, uint, address[] memory, address[] memory, uint[] memory ){\r\n        // if(keccak256(doctorInfo[addr].name)==keccak256(\"\"))revert();\r\n        return (insurerInfo[addr].name, insurerInfo[addr].count_of_patient, insurerInfo[addr].PatientWhoClaimed, \r\n        insurerInfo[addr].DocName, insurerInfo[addr].diagnosis);\r\n    }\r\n\r\n    function permit_access(address addr) payable public {\r\n        require(msg.value == 2 ether);\r\n\r\n        creditPool += 2;\r\n        \r\n        doctorInfo[addr].patientAccessList.push(msg.sender)-1;\r\n        patientInfo[msg.sender].doctorAccessList.push(addr)-1;\r\n        \r\n\r\n    }\r\n\r\n   \r\n    function select_insurer(address payable iaddr, uint[] memory _diagnosis) payable public {\r\n        uint total_amount = (_diagnosis.length);\r\n        require(msg.value == total_amount*(1 ether));\r\n        // require(msg.sender.balance >= msg.value);\r\n        iaddr.transfer((msg.value));\r\n        Patient_Insurer[msg.sender] = iaddr;\r\n        patientInfo[msg.sender].diagnosis = _diagnosis;\r\n        insurerInfo[iaddr].count_of_patient++;\r\n    }\r\n\r\n    //must be called by doctor\r\n    function insurance_claim(address paddr, uint _diagnosis, string memory _hash) public {\r\n        bool patientFound = false;\r\n        for(uint i = 0;i<doctorInfo[msg.sender].patientAccessList.length;i++){\r\n            if(doctorInfo[msg.sender].patientAccessList[i]==paddr){\r\n                msg.sender.transfer(2 ether);\r\n                creditPool -= 2;\r\n                patientFound = true;\r\n                \r\n            }\r\n            \r\n        }\r\n        if(patientFound==true){\r\n            set_hash(paddr, _hash);\r\n            remove_patient(paddr, msg.sender);\r\n        }else {\r\n            revert();\r\n        }\r\n\r\n        bool DiagnosisFound = false;\r\n        for(uint j = 0; j < patientInfo[paddr].diagnosis.length;j++){\r\n            if(patientInfo[paddr].diagnosis[j] == _diagnosis)DiagnosisFound = true;\r\n        }\r\n        if(DiagnosisFound){\r\n            insurerInfo[Patient_Insurer[paddr]].PatientWhoClaimed.push(paddr)-1;\r\n            insurerInfo[Patient_Insurer[paddr]].DocName.push(msg.sender)-1;\r\n            insurerInfo[Patient_Insurer[paddr]].diagnosis.push(_diagnosis)-1;\r\n        }\r\n    }\r\n\r\n    //must be called by insurer\r\n\r\n    function accept_claim(address payable paddr) public payable {\r\n        // require(msg.sender.balance >= msg.value);\r\n        require(msg.value == 4 ether);\r\n        paddr.transfer(msg.value);\r\n        uint index;\r\n        remove_element_in_array(insurerInfo[msg.sender].PatientWhoClaimed,paddr);\r\n        if(insurerInfo[msg.sender].diagnosis.length == 1){\r\n            delete insurerInfo[msg.sender].DocName[index];\r\n        }\r\n        else {\r\n            insurerInfo[msg.sender].DocName[index] = insurerInfo[msg.sender].DocName[insurerInfo[msg.sender].DocName.length - 1];\r\n            delete insurerInfo[msg.sender].DocName[insurerInfo[msg.sender].DocName.length - 1];\r\n\r\n        }\r\n        insurerInfo[msg.sender].DocName.length--;\r\n\r\n        if(insurerInfo[msg.sender].diagnosis.length == 1){\r\n            delete insurerInfo[msg.sender].diagnosis[index];\r\n        }\r\n        else {\r\n            insurerInfo[msg.sender].diagnosis[index] = insurerInfo[msg.sender].diagnosis[insurerInfo[msg.sender].diagnosis.length - 1];\r\n            delete insurerInfo[msg.sender].diagnosis[insurerInfo[msg.sender].diagnosis.length - 1];\r\n\r\n        }\r\n        insurerInfo[msg.sender].diagnosis.length--;   \r\n    }\r\n    \r\n    function remove_element_in_array(address[] storage Array, address addr) internal returns(uint)\r\n    {\r\n        bool check = false;\r\n        uint del_index = 0;\r\n        for(uint i = 0; i<Array.length; i++){\r\n            if(Array[i] == addr){\r\n                check = true;\r\n                del_index = i;\r\n            }\r\n        }\r\n        if(!check) revert();\r\n        else{\r\n            if(Array.length == 1){\r\n                delete Array[del_index];\r\n            }\r\n            else {\r\n                Array[del_index] = Array[Array.length - 1];\r\n                delete Array[Array.length - 1];\r\n\r\n            }\r\n            Array.length--;\r\n        }\r\n    }\r\n\r\n    function remove_patient(address paddr, address daddr) public {\r\n        remove_element_in_array(doctorInfo[daddr].patientAccessList, paddr);\r\n        remove_element_in_array(patientInfo[paddr].doctorAccessList, daddr);\r\n    }\r\n    \r\n    function get_accessed_doctorlist_for_patient(address addr) public view returns (address[] memory)\r\n    { \r\n        address[] storage doctoraddr = patientInfo[addr].doctorAccessList;\r\n        return doctoraddr;\r\n    }\r\n    function get_accessed_patientlist_for_doctor(address addr) public view returns (address[] memory)\r\n    {\r\n        return doctorInfo[addr].patientAccessList;\r\n    }\r\n\r\n    \r\n    function revoke_access(address daddr) public payable{\r\n        remove_patient(msg.sender,daddr);\r\n        msg.sender.transfer(2 ether);\r\n        creditPool -= 2;\r\n    }\r\n\r\n    function get_patient_list() public view returns(address[] memory){\r\n        return patientList;\r\n    }\r\n\r\n    function get_doctor_list() public view returns(address[] memory){\r\n        return doctorList;\r\n    }\r\n    function get_insurer_list() public view returns(address[] memory){\r\n        return insurerList;\r\n    }\r\n\r\n    function get_hash(address paddr) public view returns(string memory){\r\n        return patientInfo[paddr].record;\r\n    }\r\n\r\n    function set_hash(address paddr, string memory _hash) internal {\r\n        patientInfo[paddr].record = _hash;\r\n    }\r\n\r\n}\r\n\r\n",
  "sourcePath": "C:/Users/maddy/Documents/ml-projects-urcet/test/blockchain-for-healthcare/contracts/Agent.sol",
  "compiler": {
    "name": "solc",
    "version": "0.5.16+commit.9c3226ce.Emscripten.clang"
  },
  "schemaVersion": "3.2.5",
  "updatedAt": "2021-06-27T09:34:40.946Z",
  "networkType": "ethereum",
  "devdoc": {
    "methods": {}
  },
  "userdoc": {
    "methods": {}
  }
}